:1000000045C0000060C000005EC000005CC0000091
:100010005AC0000058C0000056C0000054C0000084
:1000200052C0000050C000004EC000004CC0000094
:100030004AC0000013C1000046C0000044C00000D8
:1000400042C0000040C000003EC000003CC00000B4
:100050003AC0000038C0000036C0000034C00000C4
:1000600032C0000030C000002EC000002CC00000D4
:100070002AC0000028C0000026C0000024C00000E4
:1000800022C0000020C000001EC0000011241FBEBE
:10009000CFEFD0E4DEBFCDBF11E0A0E0B1E0E0E9FA
:1000A000F5E000E00BBF02C007900D92A431B1074C
:1000B000D9F721E0A4E1B1E001C01D92A332B2075B
:1000C000E1F744D263C29CCF8FEE88B90000309B29
:1000D00029C0319B29C0329B29C0339B29C08FED99
:1000E00088B90000309B26C0319B26C0329B26C0B9
:1000F000339B26C08FEB88B90000309B23C0319B17
:1001000023C0329B23C0339B23C08FE788B90000F4
:10011000309B20C0319B20C0329B20C0339B20C02D
:1001200080E0089581E3089584E3089587E30895C6
:100130008AE2089582E3089585E3089588E30895A7
:1001400080E3089583E3089586E3089589E308959D
:1001500083E2089581E4089582E4089583E4089594
:1001600084E40895181619065CF0089500002150E3
:100170003109E1F74F5F5F4F8417950719F4089530
:1001800040E050E027E033E0F1CF2E988BB92F9A72
:1001900000002F9882E090E0E5CF089581E0F5CF50
:1001A000089584E690E0DEDF88E3EFDF86E0EDDFB0
:1001B0008FE0EBDF81E0E9DF8AE090E0D3CF0895C4
:1001C0002E9A8BB92F9A00002F9881E090E0CACF29
:1001D0000895813118F48158D8CF08958155D5CF2D
:1001E00008950F931F93CF93DF93182FEB01D6DF62
:1001F0008881882351F001E0010F812FEADF899186
:10020000DFDF102F88818111F6CFDF91CF911F9111
:100210000F9108958BE0809381008DE790E090939B
:1002200089008093880082E080936F00109285009F
:10023000109284008091030190910401A091050126
:10024000B091060180931C0190931D01A0931E01A3
:10025000B0931F018FB780688FBF08951F920F92D0
:100260000FB60F9211248F939F93AF93BF938091FA
:100270001C0190911D01A0911E01B0911F010197D9
:10028000A109B10980931C0190931D01A0931E0147
:10029000B0931F01892B8A2B8B2B99F481E08093DB
:1002A00020018091030190910401A0910501B0917A
:1002B000060180931C0190931D01A0931E01B09331
:1002C0001F01BF91AF919F918F910F900FBE0F9023
:1002D0001F901895609303017093040180930501AA
:1002E0009093060160931C0170931D0180931E0181
:1002F00090931F010895809121018230F1F028F43C
:10030000882351F0813061F0AFC0833009F451C0CF
:10031000843009F47CC0A8C086E990E023DFA4C043
:10032000609100017091010181E05BDF8091020129
:1003300047DF86E990E016DF97C089E082B983E065
:1003400090E010DF88E082B983E090E00BDF8CE082
:1003500082B983E090E006DF84E082B983E090E038
:1003600001DF86E082B983E090E0FCDE82E082B9C2
:1003700083E090E0F7DE83E082B983E090E0F2DE94
:1003800081E082B983E090E0EDDE809118019091E8
:100390001901A0911A01B0911B010196A11DB11D77
:1003A0008093180190931901A0931A01B0931B0137
:1003B0005BC080E182B983E090E0D4DE80E382B963
:1003C00083E090E0CFDE80E282B983E090E0CADE95
:1003D00080E682B983E090E0C5DE80E482B983E004
:1003E00090E0C0DE80EC82B983E090E0BBDE80E884
:1003F00082B983E090E0B6DE80E982B983E090E0E4
:10040000B1DE809122018F5F809322012DC080E9AF
:1004100082B983E090E0A6DE80E882B983E090E0D4
:10042000A1DE80EC82B983E090E09CDE80E482B9BA
:1004300083E090E097DE80E682B983E090E092DE90
:1004400080E282B983E090E08DDE80E382B983E0D0
:1004500090E088DE80E182B983E090E083DE8091E5
:1004600022018F5F80932201809121018230C1F1AE
:1004700028F4882351F0813081F10895833009F404
:1004800050C0843009F457C008951EDE882309F453
:100490005CC01ADE8A32D1F48091020190E0C097EC
:1004A00044E6489F9001499F300D1124C901330F44
:1004B000AA0BBB0B8093140190931501A093160116
:1004C000B093170182E0809321010895FDDD8093B0
:1004D000020181E080932101089510922101089585
:1004E000409118015091190160911A0170911B01FE
:1004F0008091140190911501A0911601B0911701FE
:10050000481759076A077B0700F1109218011092EB
:10051000190110921A0110921B0183E080932101AE
:10052000089580912201823380F01092220184E0AC
:1005300080932101089580912201823330F010923E
:100540002201109202011092210108958FEF81B9CA
:1005500012B884B915B890EF97B99FE098B98AB9E5
:100560001BB861E070E080E090E0B4DE53DE19DE9D
:10057000609100017091010181E033DEBCDE809169
:1005800020018823E1F310922001F8CFF894FFCFE7
:100590000701300100000057697265206C656E67C5
:0405A00074683A0041
:00000001FF
